:1000000019C020C01FC01EC01DC01CC01BC01AC00C
:1000100019C018C017C016C015C02AC013C012C01E
:1000200011C010C00FC00EC00DC00CC00BC00AC064
:1000300009C008C011241FBECFEFD2E0DEBFCDBF84
:1000400002D033C0DDCF8FEF84B985B9E1E8F0E0AD
:10005000808185608083EFE6F0E08081816080832D
:100060008BE791EE90938500809384007894FFCF86
:100070001F920F920FB60F9211248F939F9385B109
:10008000833F19F48FEF85B903C085B1815085B9DD
:100090008BE791EE90938500809384009F918F91E0
:0E00A0000F900FBE0F901F901895F894FFCF91
:00000001FF
