:1000000019C020C01FC01EC01DC01CC01BC01AC00C
:1000100019C018C017C016C015C014C013C012C034
:1000200011C010C00FC00EC00DC00CC00BC00AC064
:1000300009C008C011241FBECFEFD2E0DEBFCDBF84
:1000400043D09AC0DDCF07C08FEC97E00197F1F75E
:1000500000C00000C9019C0121503109892BA1F782
:100060000895499BFECFFC012081318128513C4FEE
:100070002835FBE13F0730F028E53BE1FC01318307
:1000800020830895FC013183208308954D9BFECF8A
:10009000FC0120813181253FF1E03F0730F428EC5D
:1000A00030E0FC013183208308952C523140293CFB
:1000B000310530F428EC30E0FC01318320830895D1
:1000C000FC01318320830895CF93DF9300D0CDB717
:1000D000DEB7E1E6F0E080E88083108280E484B956
:1000E0001AB882E28BB984EF91E09A8389834D99A3
:1000F00004C0CE010196CADFFACF499904C0CE01EF
:100100000196AFDFF4CF80E485B94D9904C0CE01EC
:100110000196BCDFECCF499904C0CE010196A1DF66
:10012000E6CF89819A818FDF4D9904C0CE01019677
:10013000ADDFDDCF499904C0CE01019692DFD7CF64
:1001400015B84D9904C0CE010196A0DFD0CF4999D2
:1001500004C0CE01019685DFCACF89819A8173DF01
:100160004D9904C0CE01019691DFC1CF4999BFCF0F
:0C017000CE01019676DFBBCFF894FFCFE4
:00000001FF
