:1000000019C020C01FC01EC01DC01CC01BC01AC00C
:1000100019C018C017C016C015C014C013C012C034
:1000200011C010C00FC00EC00DC00CC00BC00AC064
:1000300009C008C011241FBECFEFD2E0DEBFCDBF84
:1000400043D09CC0DDCF07C08FEC97E00197F1F75C
:1000500000C00000C9019C0121503109892BA1F782
:100060000895499BFECFFC012081318128513C4FEE
:100070002835FBE13F0730F028E53BE1FC01318307
:1000800020830895FC013183208308954D9BFECF8A
:10009000FC0120813181253FF1E03F0730F428EC5D
:1000A00030E0FC013183208308952C523140293CFB
:1000B000310530F428EC30E0FC01318320830895D1
:1000C000FC01318320830895CF93DF9300D0CDB717
:1000D000DEB7E1E6F0E080E8808310828FEF84B93C
:1000E0001AB892E29BB924EF31E03A83298385B9AB
:1000F0004D9904C0CE010196C9DFFACF499904C0D9
:10010000CE010196AEDFF4CF8FEB85B94D9904C0D7
:10011000CE010196BBDFECCF499904C0CE01019618
:10012000A0DFE6CF89819A818EDF4D9904C0CE0190
:100130000196ACDFDDCF499904C0CE01019691DF75
:10014000D7CF8FEF85B94D9904C0CE0101969EDFC0
:10015000CFCF499904C0CE01019683DFC9CF8981F1
:100160009A8171DF4D9904C0CE0101968FDFC0CF17
:100170004999BECFCE01019674DFBACFF894FFCF74
:00000001FF
