:1000000019C033C032C031C030C03EC02EC02DC078
:100010002CC02BC02AC029C028C027C026C025C09C
:1000200024C023C022C021C020C01FC01EC01DC0CC
:100030001CC01BC011241FBECFEFD2E0DEBFCDBF5E
:1000400011E0A0E0B1E0EEE0F1E002C005900D9219
:10005000A230B107D9F721E0A2E0B1E001C01D92C2
:10006000A430B207E1F702D050C0CACF1AB88FEF60
:100070008BB984B985B9E8E6F0E09081946090830B
:1000800080936D007894FFCF1F920F920FB60F925E
:1000900011242F933F938F939F9348991DC0809174
:1000A0000201909103010196909303018093020154
:1000B000809102019091030180FD06C080910001B2
:1000C0009091010185B908C08FEF90E090930101F4
:1000D000809300018FEF85B989B18E7F8E3F61F0EB
:1000E00089B1209100013091010190E08223932396
:1000F00090930101809300019F918F913F912F91E7
:0E0100000F900FBE0F901F901895F894FFCF30
:02010E00FF00F0
:00000001FF
